:1008B500021E0000020A000002240000021C0010B3
:1008C500020C003B02080034021200000214000A68
:1008D500021A000F02160000020E000002100000AE
:0C08E5000218000002200000022202584D
:10001E00758922758C06758A06758D06758B06C2D6
:10002E00B9D2BBD2AF75A0FFD2B07FF47E01120061
:10003E000E1209E97FF47E0112000E120A6AE4FF25
:10004E00FE120A7FE4FFFE120A92C2937F017E0027
:10005E00120A7F12098D20A126120A6A30A01D8570
:10006E001448851549851A4A851B4BAB09AA08AD5C
:10007E000DAC0CAF1DAE1C12020480E002019030DC
:10008E00A203020196120A6A1209BB20A466120A82
:10009E006AE4FDFCFFFE12069520A003020190AD5E
:1000AE001BAC1AAF15AE1412069520A7227F147E34
:1000BE000012000E0515E51570020514C3940DE52A
:1000CE00146480948040D275140075150180CA2086
:1000DE00B0C77F147E0012000E051BE51B700205D3
:1000EE001AC3941FE51A6480948040AD751A00758A
:1000FE001B0180A520A594120A6AE4FBFAFDFCFF01
:10010E00FE1204E230A07BAB09AA08AD0DAC0CAF19
:10011E001DAE1C1204E220A6217F147E0012000EDA
:10012E00051DE51D7002051CC39418E51C64809422
:10013E008040D1E4F51CF51D80CA20A7217F147ED6
:10014E000012000E050DE50D7002050CC3943CE582
:10015E000C6480948040ADE4F50CF50D80A620B0C3
:10016E00A37F147E0012000E0509E5097002050832
:10017E00C3943CE508648094804089E4F508F50951
:10018E008082120A6A02006130A303020061120A21
:10019E006A30A04B20A40DE51145107007F51075BF
:1001AE0011018012E5114510600C20A409E4F51030
:1001BE00F511F50AF50B20A515E4F516F517F50E54
:1001CE00F50FF512F513F510F511F50AF50BAB1346
:1001DE00AA12AD0FAC0EAF17AE161205C680B2E462
:1001EE00F510F511F512F513F516F517F50EF50FC9
:0601FE00120A6A02006112
:03001B0002037865
:10037800C0E0C0F0C083C082C0D075D000C000C04B
:1003880001C002C003C004C005C006C007051FE5C0
:100398001F7002051EC394A0E51E6480948F400E52
:1003A8000509E50970020508751E00751F00C3E5FB
:1003B80009943CE50864809480400E050DE50D70B5
:1003C80002050C750800750900C3E50D943CE50CA1
:1003D80064809480400E051DE51D7002051C750C97
:1003E80000750D00C3E51D9418E51C6480948040D9
:1003F8000E051BE51B7002051A751C00751D00C350
:10040800E51B941EE51A64809480400E0515E515D9
:1004180070020514751A00751B00C3E515940CE5E8
:1004280014648094804006751400751500E50D4528
:100438000C7011E5094508700BF5187519017F0155
:10044800FE120A92E51945187005FFFE120A92E598
:10045800114510606A050BE50B7002050AC39490FC
:10046800E50A64809481400E0513E51370020512B5
:10047800750A00750B00C3E513940AE512648094AD
:1004880080400E050FE50F7002050E7512007513FA
:1004980000C3E50F943CE50E64809480400E051778
:1004A800E51770020516750E00750F00C3E5179461
:1004B8003CE516648094804006751600751700D0D8
:1004C80007D006D005D004D003D002D001D000D088
:0A04D800D0D082D083D0F0D0E03203
:03000B00020844A4
:10084400C0E0C0D00525E52570020524E521640A31
:100854004520601FC3E5259432E5246480948040DC
:1008640012752400752500B2930521E52170340525
:10087400208030C3E521940AE520648094804023DD
:10088400B293E523152370021522D3E5239400E5E2
:100894002264809480500C7520007521007522001C
:1008A4007523C820A606751800751900D0D0D0E0AD
:0108B4003211
:080958007D057F057C007E0097
:10096000E4FBFAC3EB9FEE6480F8EA648098501CC5
:10097000900000C3E5829DEC6480F8E58364809874
:0C0980005003A380EE0BBB00010A80D7DF
:01098C002248
:100912007901754E00754F64E9603AE54F454E60C6
:10092200347580FFC2907D077F0712095CC292D2A4
:10093200917D057F05120960D290120960A287E4B9
:1009420033F97D0F7F0F120960C290E54F154F708A
:05095200C7154E80C333
:01095700227D
:100A10008E4C8F4D120912C290C292C291854D80A8
:0F0A2000120958D2907D197F19120960C29022D5
:100A2F008E4C8F4D120912C290D292C291854D8079
:0F0A3F00120958D2907D197F19120960C29022B6
:100A6A007F017E00120A107F067E00120A107F0C98
:050A7A007E00020A10DD
:1009E9007F387E00120A107D147C007F147E00126D
:1009F90009607F0C120A107D147C007F147E00129E
:070A090009607F06020A10DC
:0C000E00EF75F00CA4FF7EA9DEFEDFFC05
:01001A0022C3
:0A0AA500303132333435363738393A
:1008F100103254696D652020536574202054696D50
:1009010065720C2664617465206F722074696D656F
:10098D007F807E00120A10E4F542F5437432254350
:10099D00F8E6FF3395E0FE120A2F0543E54370029A
:0D09AD000542C39410E5426480948040DF51
:0109BA00221A
:100204008E428F438C448D458A468B477F807E0087
:10021400120A10AE48AF497C007D0A1207B974A5D2
:100224002FF582740A3EF583E493FF7E00120A2FB1
:10023400AE48AF497C007D0A1207B974A52DF5823A
:10024400740A3CF583E493FF7E00120A2F7F4D7EEF
:1002540000120A2F7F207E00120A2FAE4AAF4B7C79
:10026400007D0A1207B974A52FF582740A3EF5833E
:10027400E493FF7E00120A2FAE4AAF4B7C007D0A46
:100284001207B974A52DF582740A3CF583E493FF33
:100294007E00120A2F7F447E00120A2F7FC07E0048
:1002A400120A10AE42AF437C007D0A1207B974A54E
:1002B4002FF582740A3EF583E493FF7E00120A2F21
:1002C400AE42AF437C007D0A1207B974A52DF582B6
:1002D400740A3CF583E493FF7E00120A2F7F487E64
:1002E40000120A2F7F207E00120A2FAE44AF457CF5
:1002F400007D0A1207B974A52FF582740A3EF583AE
:10030400E493FF7E00120A2FAE44AF457C007D0AC1
:100314001207B974A52DF582740A3CF583E493FFA2
:100324007E00120A2F7F4D7E00120A2F7F207E004E
:10033400120A2FAE46AF477C007D0A1207B974A596
:100344002FF582740A3EF583E493FF7E00120A2F90
:10035400AE46AF477C007D0A1207B974A52DF5821D
:10036400740A3CF583E493FF7E00120A2F7F537EC8
:0403740000020A2F4A
:1009BB007F807E00120A10E4F542F543742625432E
:1009CB00F8E6FF3395E0FE120A2F0543E54370026C
:0D09DB000542C3940CE5426480948040DF27
:0109E80022EC
:100695008E428F438C448D457F807E00120A10AEBA
:1006A50042AF437C007D0A1207B974A52FF5827409
:1006B5000A3EF583E493FF7E00120A2FAE42AF4354
:1006C5007C007D0A1207B974A52DF582740A3CF5E4
:1006D50083E493FF7E00120A2F7F4D7E00120A2FBE
:1006E5007F207E00120A2FAE44AF457C007D0A12A2
:1006F50007B974A52FF582740A3EF583E493FF7E4E
:1007050000120A2FAE44AF457C007D0A1207B9746A
:10071500A52DF582740A3CF583E493FF7E00120A49
:080725002F7F447E00020A2F21
:1004E2008E428F438C448D458A468B477F807E00A7
:1004F200120A10AE42AF437C007D0A1207B974A5FE
:100502002FF582740A3EF583E493FF7E00120A2FD0
:10051200AE42AF437C007D0A1207B974A52DF58265
:10052200740A3CF583E493FF7E00120A2F7F487E13
:1005320000120A2F7F207E00120A2FAE44AF457CA4
:10054200007D0A1207B974A52FF582740A3EF5835D
:10055200E493FF7E00120A2FAE44AF457C007D0A71
:100562001207B974A52DF582740A3CF583E493FF52
:100572007E00120A2F7F4D7E00120A2F7F207E00FE
:10058200120A2FAE46AF477C007D0A1207B974A546
:100592002FF582740A3EF583E493FF7E00120A2F40
:1005A200AE46AF477C007D0A1207B974A52DF582CD
:1005B200740A3CF583E493FF7E00120A2F7F537E78
:0405C20000020A2FFA
:1005C6008E428F438C448D458A468B477F807E00C2
:1005D600120A10AE42AF437C007D0A1207B974A519
:1005E6002FF582740A3EF583E493FF7E00120A2FEC
:1005F600AE42AF437C007D0A1207B974A52DF58281
:10060600740A3CF583E493FF7E00120A2F7F3A7E3C
:1006160000120A2FAE44AF457C007D0A1207B9745A
:10062600A52FF582740A3EF583E493FF7E00120A35
:100636002FAE44AF457C007D0A1207B974A52DF58F
:1006460082740A3CF583E493FF7E00120A2F7F3AF8
:100656007E00120A2FAE46AF477C007D0A1207B90C
:1006660074A52FF582740A3EF583E493FF7E00128B
:100676000A2FAE46AF477C007D0A1207B974A52D36
:0F068600F582740A3CF583E493FF7E00020A2F8D
:100A4E007F807E00120A107F217E00120A2F7FC047
:0C0A5E007E00120A107F217E00020A2F89
:100A7F00EF64014E7004D28ED2ABEF4E7004C28E73
:030A8F00C2AB22D5
:100A9200EF64014E7004D28CD2A9EF4E7004C28C66
:030AA200C2A922C4
:0300000002072DC7
:0C072D00787FE4F6D8FD75814F02077458
:1007B900C2D5EC30E709B2D5E4C39DFDE49CFCEE5B
:1007C90030E715B2D5E4C39FFFE49EFE1207EFC3DD
:1007D900E49DFDE49CFC80031207EF30D507C3E4D8
:0607E9009FFFE49EFE22CA
:1007390002001EE493A3F8E493A34003F68001F2B8
:1007490008DFF48029E493A3F85407240CC8C333C1
:10075900C4540F4420C8834004F456800146F6DF90
:10076900E4800B01020408102040809008B5E47E63
:10077900019360BCA3FF543F30E509541FFEE49385
:10078900A360010ECF54C025E060A840B8E493A34C
:10079900FAE493A3F8E493A3C8C582C8CAC583CA77
:1007A900F0A3C8C582C8CAC583CADFE9DEE780BE2F
:0109110000E5
:1007EF00BC000BBE0029EF8DF084FFADF022E4CCEE
:1007FF00F875F008EF2FFFEE33FEEC33FCEE9DECB7
:10080F00984005FCEE9DFE0FD5F0E9E4CEFD22EDFC
:10081F00F8F5F0EE8420D21CFEADF075F008EF2F46
:10082F00FFED33FD4007985006D5F0F222C398FD37
:05083F000FD5F0EA22D4
:00000001FF
